{
  "contractName": "BatchDistributor",
  "abi": [
    {
      "inputs": [],
      "stateMutability": "payable",
      "type": "constructor",
      "payable": true
    },
    {
      "inputs": [
        {
          "internalType": "address",
          "name": "target",
          "type": "address"
        }
      ],
      "name": "AddressEmptyCode",
      "type": "error"
    },
    {
      "inputs": [
        {
          "internalType": "address",
          "name": "account",
          "type": "address"
        }
      ],
      "name": "AddressInsufficientBalance",
      "type": "error"
    },
    {
      "inputs": [
        {
          "internalType": "address",
          "name": "emitter",
          "type": "address"
        }
      ],
      "name": "EtherTransferFail",
      "type": "error"
    },
    {
      "inputs": [],
      "name": "FailedInnerCall",
      "type": "error"
    },
    {
      "inputs": [
        {
          "internalType": "address",
          "name": "token",
          "type": "address"
        }
      ],
      "name": "SafeERC20FailedOperation",
      "type": "error"
    },
    {
      "inputs": [
        {
          "components": [
            {
              "components": [
                {
                  "internalType": "address payable",
                  "name": "recipient",
                  "type": "address"
                },
                {
                  "internalType": "uint256",
                  "name": "amount",
                  "type": "uint256"
                }
              ],
              "internalType": "struct BatchDistributor.Transaction[]",
              "name": "txns",
              "type": "tuple[]"
            }
          ],
          "internalType": "struct BatchDistributor.Batch",
          "name": "batch",
          "type": "tuple"
        }
      ],
      "name": "distributeEther",
      "outputs": [],
      "stateMutability": "payable",
      "type": "function",
      "payable": true
    },
    {
      "inputs": [
        {
          "internalType": "contract IERC20",
          "name": "token",
          "type": "address"
        },
        {
          "components": [
            {
              "components": [
                {
                  "internalType": "address payable",
                  "name": "recipient",
                  "type": "address"
                },
                {
                  "internalType": "uint256",
                  "name": "amount",
                  "type": "uint256"
                }
              ],
              "internalType": "struct BatchDistributor.Transaction[]",
              "name": "txns",
              "type": "tuple[]"
            }
          ],
          "internalType": "struct BatchDistributor.Batch",
          "name": "batch",
          "type": "tuple"
        }
      ],
      "name": "distributeToken",
      "outputs": [],
      "stateMutability": "nonpayable",
      "type": "function"
    }
  ],
  "bytecode": "0x60806040523060485760405162461bcd60e51b815260206004820152601160248201527011195c1b1bde5b595b9d0819985a5b1959607a1b604482015260640160405180910390fd5b61086c806100576000396000f3fe6080604052600436106100295760003560e01c80633bd08a791461002e5780639d0918b514610050575b600080fd5b34801561003a57600080fd5b5061004e610049366004610663565b610063565b005b61004e61005e3660046106b3565b610172565b600061006f82806106f0565b905090506000805b828110156100b85761008984806106f0565b828181106100995761009961075f565b90506040020160200135826100ae919061078e565b9150600101610077565b506100db73ffffffffffffffffffffffffffffffffffffffff851633308461031c565b60005b8281101561016b576101636100f385806106f0565b838181106101035761010361075f565b61011992602060409092020190810191506107c8565b61012386806106f0565b848181106101335761013361075f565b905060400201602001358773ffffffffffffffffffffffffffffffffffffffff166103a59092919063ffffffff16565b6001016100de565b5050505050565b600061017e82806106f0565b9050905060005b8181101561028957600061019984806106f0565b838181106101a9576101a961075f565b6101bf92602060409092020190810191506107c8565b73ffffffffffffffffffffffffffffffffffffffff166101df85806106f0565b848181106101ef576101ef61075f565b9050604002016020013560405160006040518083038185875af1925050503d8060008114610239576040519150601f19603f3d011682016040523d82523d6000602084013e61023e565b606091505b5050905080610280576040517fdd74906f0000000000000000000000000000000000000000000000000000000081523060048201526024015b60405180910390fd5b50600101610185565b5047801561031757604051600090339083908381818185875af1925050503d80600081146102d3576040519150601f19603f3d011682016040523d82523d6000602084013e6102d8565b606091505b5050905080610315576040517fdd74906f000000000000000000000000000000000000000000000000000000008152306004820152602401610277565b505b505050565b60405173ffffffffffffffffffffffffffffffffffffffff84811660248301528381166044830152606482018390526103159186918216906323b872dd906084015b604051602081830303815290604052915060e01b6020820180517bffffffffffffffffffffffffffffffffffffffffffffffffffffffff83818316178352505050506103e3565b60405173ffffffffffffffffffffffffffffffffffffffff83811660248301526044820183905261031791859182169063a9059cbb9060640161035e565b600061040573ffffffffffffffffffffffffffffffffffffffff841683610479565b9050805160001415801561042a57508080602001905181019061042891906107e5565b155b15610317576040517f5274afe700000000000000000000000000000000000000000000000000000000815273ffffffffffffffffffffffffffffffffffffffff84166004820152602401610277565b606061048783836000610490565b90505b92915050565b6060814710156104ce576040517fcd786059000000000000000000000000000000000000000000000000000000008152306004820152602401610277565b6000808573ffffffffffffffffffffffffffffffffffffffff1684866040516104f79190610807565b60006040518083038185875af1925050503d8060008114610534576040519150601f19603f3d011682016040523d82523d6000602084013e610539565b606091505b5091509150610549868383610555565b925050505b9392505050565b60608261056a57610565826105e4565b61054e565b815115801561058e575073ffffffffffffffffffffffffffffffffffffffff84163b155b156105dd576040517f9996b31500000000000000000000000000000000000000000000000000000000815273ffffffffffffffffffffffffffffffffffffffff85166004820152602401610277565b508061054e565b8051156105f45780518082602001fd5b6040517f1425ea4200000000000000000000000000000000000000000000000000000000815260040160405180910390fd5b50565b73ffffffffffffffffffffffffffffffffffffffff8116811461062657600080fd5b60006020828403121561065d57600080fd5b50919050565b6000806040838503121561067657600080fd5b823561068181610629565b9150602083013567ffffffffffffffff81111561069d57600080fd5b6106a98582860161064b565b9150509250929050565b6000602082840312156106c557600080fd5b813567ffffffffffffffff8111156106dc57600080fd5b6106e88482850161064b565b949350505050565b60008083357fffffffffffffffffffffffffffffffffffffffffffffffffffffffffffffffe184360301811261072557600080fd5b83018035915067ffffffffffffffff82111561074057600080fd5b6020019150600681901b360382131561075857600080fd5b9250929050565b7f4e487b7100000000000000000000000000000000000000000000000000000000600052603260045260246000fd5b8082018082111561048a577f4e487b7100000000000000000000000000000000000000000000000000000000600052601160045260246000fd5b6000602082840312156107da57600080fd5b813561054e81610629565b6000602082840312156107f757600080fd5b8151801515811461054e57600080fd5b6000825160005b81811015610828576020818601810151858301520161080e565b50600092019182525091905056fea2646970667358221220fb679be69c523b090f775bb4971c6462c0d73d46c1963003227b8efbccbf3f3764736f6c634300081a0033",
  "immutableReferences": {},
  "source": "// SPDX-License-Identifier: MIT\r\npragma solidity 0.8.26;\r\n\r\nimport {IERC20} from \"@openzeppelin/contracts/token/ERC20/IERC20.sol\";\r\nimport {SafeERC20} from \"@openzeppelin/contracts/token/ERC20/utils/SafeERC20.sol\";\r\n\r\n/**\r\n * @dev Error that occurs when transferring ether has failed.\r\n * @param emitter The contract that emits the error.\r\n */\r\nerror EtherTransferFail(address emitter);\r\n\r\n/**\r\n * @title Native and ERC-20 Token Batch Distributor\r\n * @author 0x7761676d69\r\n * @notice Helper smart contract for batch sending both\r\n * native and ERC-20 tokens.\r\n * @dev Since we use nested struct objects, we rely on the ABI coder v2.\r\n * The ABI coder v2 is activated by default since Solidity `v0.8.0`.\r\n */\r\ncontract BatchDistributor {\r\n    using SafeERC20 for IERC20;\r\n\r\n    /**\r\n     * @dev Transaction struct for the transaction payload.\r\n     */\r\n    struct Transaction {\r\n        address payable recipient;\r\n        uint256 amount;\r\n    }\r\n\r\n    /**\r\n     * @dev Batch struct for the array of transactions.\r\n     */\r\n    struct Batch {\r\n        Transaction[] txns;\r\n    }\r\n\r\n    /**\r\n     * @dev You can cut out 10 opcodes in the creation-time EVM bytecode\r\n     * if you declare a constructor `payable`.\r\n     *\r\n     * For more in-depth information see here:\r\n     * https://forum.openzeppelin.com/t/a-collection-of-gas-optimisation-tricks/19966/5.\r\n     */\r\n    constructor() payable {\r\n        require(address(this) != address(0), \"Deployment failed\");\r\n    }\r\n\r\n    /**\r\n     * @dev Distributes ether, denominated in wei, to a predefined batch\r\n     * of recipient addresses.\r\n     * @notice In the event that excessive ether is sent, the residual\r\n     * amount is returned back to the `msg.sender`.\r\n     * @param batch Nested struct object that contains an array of tuples that\r\n     * contain each a recipient address & ether amount in wei.\r\n     */\r\n    function distributeEther(Batch calldata batch) external payable {\r\n        /**\r\n         * @dev Caching the length in for loops saves 3 additional gas\r\n         * for a `calldata` array for each iteration except for the first.\r\n         */\r\n        uint256 length = batch.txns.length;\r\n\r\n        /**\r\n         * @dev If a variable is not set/initialised, it is assumed to have\r\n         * the default value. The default value for the `uint` types is 0.\r\n         */\r\n        for (uint256 i; i < length; ++i) {\r\n            // solhint-disable-next-line avoid-low-level-calls\r\n            (bool sent, ) = batch.txns[i].recipient.call{\r\n                value: batch.txns[i].amount\r\n            }(\"\");\r\n            if (!sent) revert EtherTransferFail(address(this));\r\n        }\r\n\r\n        uint256 balance = address(this).balance;\r\n        if (balance != 0) {\r\n            /**\r\n             * @dev Any wei amount previously forced into this contract (e.g. by\r\n             * using the `SELFDESTRUCT` opcode) will be part of the refund transaction.\r\n             */\r\n            // solhint-disable-next-line avoid-low-level-calls\r\n            (bool refunded, ) = payable(msg.sender).call{value: balance}(\"\");\r\n            if (!refunded) revert EtherTransferFail(address(this));\r\n        }\r\n    }\r\n\r\n    /**\r\n     * @dev Distributes ERC-20 tokens, denominated in their corresponding\r\n     * lowest unit, to a predefined batch of recipient addresses.\r\n     * @notice To deal with (potentially) non-compliant ERC-20 tokens that\r\n     * do have no return value, we use the `SafeERC20` library for external calls.\r\n     * Note: Since we cast the token address into the official ERC-20 interface,\r\n     * the use of non-compliant ERC-20 tokens is prevented by design. Nevertheless,\r\n     * we keep this guardrail for security reasons.\r\n     * @param token ERC-20 token contract address.\r\n     * @param batch Nested struct object that contains an array of tuples that\r\n     * contain each a recipient address & token amount.\r\n     */\r\n    function distributeToken(IERC20 token, Batch calldata batch) external {\r\n        /**\r\n         * @dev Caching the length in for loops saves 3 additional gas\r\n         * for a `calldata` array for each iteration except for the first.\r\n         */\r\n        uint256 length = batch.txns.length;\r\n\r\n        /**\r\n         * @dev If a variable is not set/initialised, it is assumed to have\r\n         * the default value. The default value for the `uint` types is 0.\r\n         */\r\n        uint256 total;\r\n        for (uint256 i; i < length; ++i) {\r\n            total += batch.txns[i].amount;\r\n        }\r\n\r\n        /**\r\n         * @dev By combining a `transferFrom` call to itself and then\r\n         * distributing the tokens from its own address using `transfer`,\r\n         * 5'000 gas is saved on each transfer as `allowance` is only\r\n         * touched once.\r\n         */\r\n        token.safeTransferFrom(msg.sender, address(this), total);\r\n\r\n        for (uint256 i; i < length; ++i) {\r\n            token.safeTransfer(batch.txns[i].recipient, batch.txns[i].amount);\r\n        }\r\n    }\r\n}\r\n",
  "sourcePath": "F:\\porjects\\batch_task_forntend_actual\\truffle\\contracts\\BatchDistributor.sol",
  "compiler": {
    "name": "solc",
    "version": "0.8.26+commit.8a97fa7a.Emscripten.clang"
  },
  "schemaVersion": "3.4.16",
  "updatedAt": "2024-07-31T02:00:22.248Z",
  "networkType": "ethereum",
  "devdoc": {
    "author": "0x7761676d69",
    "details": "Since we use nested struct objects, we rely on the ABI coder v2. The ABI coder v2 is activated by default since Solidity `v0.8.0`.",
    "errors": {
      "AddressEmptyCode(address)": [
        {
          "details": "There's no code at `target` (it is not a contract)."
        }
      ],
      "AddressInsufficientBalance(address)": [
        {
          "details": "The ETH balance of the account is not enough to perform the operation."
        }
      ],
      "EtherTransferFail(address)": [
        {
          "details": "Error that occurs when transferring ether has failed.",
          "params": {
            "emitter": "The contract that emits the error."
          }
        }
      ],
      "FailedInnerCall()": [
        {
          "details": "A call to an address target failed. The target may have reverted."
        }
      ],
      "SafeERC20FailedOperation(address)": [
        {
          "details": "An operation with an ERC20 token failed."
        }
      ]
    },
    "kind": "dev",
    "methods": {
      "constructor": {
        "details": "You can cut out 10 opcodes in the creation-time EVM bytecode if you declare a constructor `payable`. For more in-depth information see here: https://forum.openzeppelin.com/t/a-collection-of-gas-optimisation-tricks/19966/5."
      },
      "distributeEther(((address,uint256)[]))": {
        "details": "Distributes ether, denominated in wei, to a predefined batch of recipient addresses.",
        "params": {
          "batch": "Nested struct object that contains an array of tuples that contain each a recipient address & ether amount in wei."
        }
      },
      "distributeToken(address,((address,uint256)[]))": {
        "details": "Distributes ERC-20 tokens, denominated in their corresponding lowest unit, to a predefined batch of recipient addresses.",
        "params": {
          "batch": "Nested struct object that contains an array of tuples that contain each a recipient address & token amount.",
          "token": "ERC-20 token contract address."
        }
      }
    },
    "title": "Native and ERC-20 Token Batch Distributor",
    "version": 1
  },
  "userdoc": {
    "kind": "user",
    "methods": {
      "distributeEther(((address,uint256)[]))": {
        "notice": "In the event that excessive ether is sent, the residual amount is returned back to the `msg.sender`."
      },
      "distributeToken(address,((address,uint256)[]))": {
        "notice": "To deal with (potentially) non-compliant ERC-20 tokens that do have no return value, we use the `SafeERC20` library for external calls. Note: Since we cast the token address into the official ERC-20 interface, the use of non-compliant ERC-20 tokens is prevented by design. Nevertheless, we keep this guardrail for security reasons."
      }
    },
    "notice": "Helper smart contract for batch sending both native and ERC-20 tokens.",
    "version": 1
  }
}